:100000000C942A020C9471020C9471020C947D0ED3
:100010000C9471020C9471020C9471020C94710294
:100020000C9471020C9471020C9459210C942C22A2
:100030000C941F1C0C9471020C9471020C947102AC
:100040000C9471020C9471020C9471020C94710264
:100050000C9471020C948A1C0C9471020C94710221
:100060000C9471020C9471020C9471020C94710244
:100070000C9471020C9471020C9471020C94710234
:100080000C9471020C9471020C9471020C94710224
:100090000C9471020C9471020C9471020C94710214
:1000A0000C9471020C9471020C9471022B001400D8
:1000B0001A00080015001700E000040016000700F1
:1000C00009000A0000571D001B000600190005006A
:1000D000000000000000E30003512C642A0013001C
:1000E00012000C0018001C00340033000F000E003A
:1000F0000D000B00290038003700360010001100F9
:10010000000000000000E600045128002B0014004D
:100110001A00090013000500E00004001500160095
:1001200017000A0000571D001B00060007001900F9
:10013000000000000000E30003512C642A0033009B
:100140001C0018000F000D00340012000C00080005
:100150001100100029003800370036000B000E0097
:10016000000000000000E6000451280029001E00E5
:100170001F002000210022002B0014001A0008009C
:1001800015001700E10004001600070009000A002E
:10019000000000000000E00003512C002A001300C2
:1001A00012000C0018001C00340033000F000E0079
:1001B0000D000B0029003800370036001000110038
:1001C000000000000000E600045128002B001E0083
:1001D0001F00200021002200E00021023000250243
:1001E00026021F1400571E0220142E022D02211475
:1001F000000000000000E30001002C002A0027009E
:1002000026002500240023002D003002270231148F
:1002100034141E1429002F02220230142F1423023A
:10022000000000000000E600055128002B003A0005
:100230003B003C003D003E00E000000000000000EC
:1002400000000000E10000000000000000000000CD
:10025000000000000000E30005512C004C004300AA
:100260004200410040003F00000000004F005200EB
:1002700051005000290000000000000000000000B4
:10028000000000000000E600010028002B00000034
:100290000000000000000000E0000000000000007E
:1002A00002520000E1000000000000000000000019
:1002B000000000000000E30001002C002A00000004
:1002C00000000000000000000000000000000152DB
:1002D00000520000290000000000000000000000A3
:1002E000000000000000E600010028000C034300AD
:1002F0006F0072006E0065000000100366006F0062
:100300006F007300740061006E00000004030904B4
:1003100009023B00020100A0FA09040000010301E8
:100320000100092111010001224000070581030895
:10033000000A090401000103000000092111010065
:100340000122B6000705820320000A1201100100F5
:1003500000000853460100010001020001050109E7
:1003600002A10185020901A1000509190129081549
:100370000025019508750181020501093009311533
:1003800081257F95027508810609381581257F959D
:100390000175088106050C0A38021581257F950133
:1003A00075088106C0C005010980A10185031901F6
:1003B0002AB700150126B700950175108100C00508
:1003C0000C0901A101850419012AA002150126A02A
:1003D00002950175108100C005010906A10185057E
:1003E000050719E029E71500250195087501810227
:1003F0000507190029EF1500250195F07501810207
:1004000005081901290595057501910295017503E6
:100410009101C005010906A101050719E029E715A9
:100420000025019508750181029501750881010576
:1004300007190029FF150026FF00950675088100A1
:1004400005081901290595057501910295017503A6
:100450009101C00011241FBECFEFDAE0DEBFCDBF97
:1004600004B603FE27C08091B1029091B202A09120
:10047000B302B091B4028730904BA740B04BD1F497
:100480001092B1021092B2021092B3021092B40212
:1004900014BE84B7877F84BF0FB6F894A895809167
:1004A0006000886180936000109260000FBEE0E001
:1004B000F8E3099511E0A0E0B1E0E2E5F9E402C05B
:1004C00005900D92A43AB107D9F722E0A4EAB1E071
:1004D00001C01D92A13BB207E1F70E949B1E0C9444
:1004E00063240C9400009C01FB019A9581159F41A7
:1004F00018F5D901AA27B270832F8170B901662738
:100500007470A9014427587034FF0CC08295807F15
:10051000AB2B09F08062672B09F08064452B09F052
:1005200080680994AB2B09F08260672B09F0846026
:10053000452BB9F38860F5CF0895CF93DF93EC0195
:10054000805E9109089720F061EB73E1209711F428
:1005500062E271E1CE010E9473028C2FDF91CF9194
:100560000C948710CF93DF93EC010E94D410CE013E
:10057000805E9109089720F068EB73E1209711F4F1
:1005800069E271E1CE01DF91CF910C94730281E0B9
:10059000089581E008950C94C90208950C94CD0249
:1005A0001F93CF93DF9300D000D00F92CDB7DEB76B
:1005B00049835A836B833091E00189819A8131119B
:1005C0001DC06623B9F02223A9F00E94E618182F57
:1005D000682F89819A810E948F1869817A81812F81
:1005E0000F900F900F900F900F90DF91CF911F9170
:1005F0000C949C030E94BD18182FEFCF0E94E618A0
:1006000069817A81EDCFFC01262F40815181628181
:10061000738184810C94D002CF93DF93D82FC92F9C
:1006200060E00E9403036D2F7C2FDF91CF910C942B
:10063000CE020E949D050C94D6050E940D0D0C94CF
:10064000D90508950E94D5130E9421032FEF84E35A
:100650009CE0215080409040E1F700C000000C94E5
:10066000111D0F931F93CF93DF938C0161E00E94C4
:100670000303EC01B8010E946A0CB801CE010E948C
:10068000CB028823D9F1B801CE010E94B30C882394
:10069000A9F1B801CE010E94850A882379F1B80139
:1006A000CE010E94DA0A882349F1B801CE010E94E6
:1006B000B20B882319F1F8018281882361F0CB35D0
:1006C000FDE5DF0721F170F4C115ECE5DE07A1F0CF
:1006D000CF3DDC45C9F0C801DF91CF911F910F914B
:1006E0000C94C702CC358DE5D807A1F0CD35DD459A
:1006F00091F70E949519EFCF0E94220380E0DF91CD
:10070000CF911F910F9108950E94061BF7CF0E9471
:100710009E19E1CF0E94A119DECF08950C948D039C
:1007200081E008950C949003CF93C82F0E948E030C
:100730008C2FCF910C949203972F70E026E0929F1C
:10074000600D711D1124FB0190E3899FE00DF11DE7
:100750001124EE0FFF1FE455FF4F859194910895EA
:10076000CF93DF930E949C030E94A504EC018115A6
:1007700022E5920708F05AC0811531E5930708F089
:10078000B7C0883E9105E8F4803E910570F4883A40
:10079000910578F4853A910508F099C0813091056A
:1007A00021F00497813A910548F4CE01DF91CF9171
:1007B0000895885A9109479708F48CC0D0E0C0E0AA
:1007C000F4CFC11580E5D807A0F4C11590E4D9078E
:1007D00008F08BC0CF3FD10509F028F4CD3ED105FC
:1007E00068F3D065E2CFCE019A9581159F41E8F27A
:1007F000E5CF9E01F4E036952795FA95E1F7237051
:100800008C2F86958695837030E2839FC0011124DA
:10081000922BC37021E030E002C0220F331FCA9533
:10082000E2F7822B932BEC01DC68BFCFC11586E584
:10083000D80730F5C11595E5D90708F06DC0C11589
:1008400024E5D207C0F48C2F869586959E012370EF
:100850003327C115D34508F050C0C1E0D0E002C035
:10086000CC0FDD1F2A95E2F720E2829FC001112400
:10087000C82BD92BD9CFDC2FCC27C46FD06A95CF0A
:10088000C1153AE5D30788F4C11589E5D80708F002
:100890004EC0CE0198558F3F910511F008F08ECFD4
:1008A000DC2FCC27C06FD06A80CFCE019056811547
:1008B000904208F083CF8D2F8F710E943D0590E00C
:1008C000982F882788279F718C2BEC012EC0A49726
:1008D000D0646BCFC85AD0E0CC0FDD1FC75CDE4FB1
:1008E0000990D881C02DD46460CFDF70D06A5DCF0D
:1008F000D82FCC27C16FD06A58CFC1E0D0E002C05A
:10090000CC0FDD1F2A95E2F730E2839FC00111244E
:10091000C82BD92BDA6849CF8C2F0E943D05C82FF0
:10092000D0E0DC2FCC27CC27DF71D0623ECF8C2FDC
:100930008F700E943D0534E0D695C7953A95E1F752
:10094000CF709C2FEC01D06930CF803E910599F19A
:10095000C8F48133910509F476C048F489329105D1
:1009600009F46AC08A32910509F474C00895893384
:100970009105D1F082389105B9F08533910509F4DC
:1009800054C00895843E910599F138F4823E910552
:10099000F9F0833E910509F10895863E910599F19C
:1009A000873E9105B9F10895209188022370A1F046
:1009B00080EE90E008952091880220FD52C0309191
:1009C000890230FF09C024FF4FC090E080E004C0DE
:1009D0002091880222FDF7CF08952091880222FD00
:1009E00046C03091890230FDE3CF24FFF5CFEDCF33
:1009F0002091890221FFF0CF8091880284FDE5CF0C
:100A000087EE90E008952091880223FFE5CF24FD32
:100A1000DCCFF6CF2091880223FD2CC030918902D3
:100A200031FFE3CF84EE90E008952091880225FF06
:100A3000D3CF89E290E008952091880225FFCCCFA2
:100A400085E390E008952091880226FFC5CF8AE2D1
:100A500090E008952091880226FFBECF81E390E0C8
:100A6000089589E390E0089583EE90E0089582EE82
:100A700090E0089586EE90E008959091880292FFAC
:100A800006C0282F28712830F9F4877F846093FFEF
:100A900006C0282F28712831F1F4877E84612091C7
:100AA000890220FF06C0382F38713830D9F4877F8B
:100AB000816021FF06C0282F28712831D1F4877E5C
:100AC000816194FD877E0895282F24712430F9F6E2
:100AD0008B7F8860DCCF282F2471243101F78B7E37
:100AE0008861DDCF382F3171313019F78E7F886002
:100AF000E0CF282F2171213121F78E7E8861E1CF4F
:100B00000C945B1A0E94B8068FE39CE90197F1F7F9
:100B100000C000000E94B8060E94880791E0892763
:100B2000880F880F0E94DB0581FF04C00E948005AA
:100B30000C94111D08950C948205CF93DF9300D07F
:100B400000D0CDB7DEB70E94611A811102C00E94A9
:100B5000061B0E946C1A809364020E94741A909380
:100B60008902809388020E949B050E94701A282F98
:100B700030E050E040E0CA01B9010E94CB168091FC
:100B8000370290913802A0913902B0913A028983DC
:100B90009A83AB83BC83BC01CD010F900F900F9063
:100BA0000F90DF91CF910C94471708950C94D505C1
:100BB00008950C94D805E82FF0E0EE56FD4F8081A3
:100BC0000895089580EA8A95F1F7089500C0089580
:100BD0000C94E205F894E82FE295EF70F0E041A163
:100BE0008F7021E030E0B90102C0660F771F8A954F
:100BF000E2F7CB01962F9095942391A392A1892B94
:100C000082A37894089508950C9403060E948A079D
:100C100080911A0180911A0191E08927880F880F2D
:100C200080939B0294E0981B90939A0284E90E941F
:100C3000EA0586E60E94EA0587E90E94EA0586EC55
:100C40000E94EA0584EF0E94EA0585EF0E94EA050A
:100C500086EF0E94EA0587EF0E94EA0581E30E9481
:100C6000EA0583E30E94EA0588E0EAE8F2E0DF01B2
:100C7000982F1D929A95E9F7E2E9F2E0DF011D92C3
:100C80008A95E9F784E00E9439070E9419030C94C1
:100C90009407EF92FF921F93CF93DF9300D000D081
:100CA000CDB7DEB70E947007182F60919B02882392
:100CB00009F451C01A8219821C821B82862F90E08F
:100CC0009E012F5F3F4F7901B9018E569D4F0E94C3
:100CD0006A0D811123C08091A6018F5F8093A601C8
:100CE0008630B8F1E0919A02F0E0EE56FD4F84E0D4
:100CF000DF01282F1D922A95E9F7D7011D928A95C9
:100D0000E9F70E941D03812F0F900F900F900F9015
:100D1000DF91CF911F91FF90EF9008951092A6015F
:100D2000A0919A02B0E0AE56BD4F9E012B5F3F4F9F
:100D300010E04D91F70191917F01491731F0AD011C
:100D400041505109FA019083182FE216F30689F7F2
:100D5000D8CF10E0D6CF70E06E567D4F80919A02CA
:100D600090E08E569D4F0E949E0D0E940406CBCFB0
:100D7000CF92DF92EF92FF920F931F93CF93DF9367
:100D80000DE611E08AE8E82E82E0F82EC0E0CC24DF
:100D9000C394D12CF80181918F01F894E82FE2954A
:100DA000EF70F0E021A18F70A60102C0440F551F23
:100DB0008A95E2F7CA01922F982B91A392A1809570
:100DC000892382A378940E94E605A7E6B1E030E08B
:100DD00020E0D0E04D91E42FE295EF70E05EF0E08E
:100DE000808190E04F7002C0959587954A95E2F713
:100DF00080FD3BC08C2D022E01C0880F0A94EAF7BB
:100E0000D82B2F5F3F4F2630310521F7F80131975E
:100E100080810E94EA050E94E805F70181917F0127
:100E2000D81729F13197D08381E0C82BF1E0013741
:100E30001F0709F0AFCF60919B0270E06E567D4FA7
:100E40002C2F44E08AE892E00E943A070E9449066B
:100E5000C11101C0C82F8C2FDF91CF911F910F912D
:100E6000FF90EF90DF90CF90089580E0C9CF80E0B1
:100E7000DCCF0895FF920F931F93CF93DF93F82E4B
:100E8000092F162FD72FC42F222349F081E08093FA
:100E9000A9010E944F1C9093A8018093A701809103
:100EA000A9018823A1F08091A7019091A8010E9437
:100EB0007B1C069760F0EF2DF02FA12FBD2FCF01E7
:100EC0008C0F911DE817F90741F41092A901DF91E9
:100ED000CF911F910F91FF90089521912D93F2CF03
:100EE0008091AA01811107C00E94E623882351F056
:100EF00081E08093AA0181E09091AA01913009F0EC
:100F000080E0089582E08093AA010E94E123F3CF5C
:100F10000C9470070E94880780931A010E94700742
:100F200081110C945E0D08950E947007811102C01A
:100F30000C94640D08958091B10180FF12C06091FE
:100F4000200185E0689FB00111247595679575951E
:100F5000679560387105A8F561157105A1F1862FB7
:100F6000089581FF09C06091200185E0689FB0016C
:100F7000112475956795EDCF6091200182FD0AC01F
:100F80002091B0012223D1F090911F0160912001A6
:100F9000291728F085E0689FB0011124DACF269F39
:100FA0009001112485E0829FA001839F500D1124A0
:100FB000692F70E0CA010E94F323CBCF65E070E097
:100FC000CECF8FE7089581E008958091B10180FF31
:100FD0000CC060911C0170E07595679575956795DB
:100FE0006115710549F1862F089581FF06C0609152
:100FF0001C0170E075956795F3CF60911C0182FD2F
:101000000BC09091AF019923A1F060911B018091D9
:101010001C01961738F0682F70E06038710500F3F6
:101020008FE70895899FC001112470E00E94F32387
:10103000F4CF61E070E0D7CF81E00895E3E1E80FFD
:10104000E331E0F5F0E0EB59FB4D0C9407240E94EE
:101050009B0781958093B50108950E949B07FACF65
:101060000E949B0781958093B40108950E949B077D
:10107000FACF0E94E5078093B60108950E94E50724
:101080008195F9CF0E94E50781958093B701089576
:101090000E94E507FACF815F990B21E030E001C0A3
:1010A000220F8A95EAF78091B301822B8093B301D6
:1010B00008958091B10181608093B101089580917C
:1010C000B1018260F9CF8091B1018460F5CF409188
:1010D000B4018D3E59F48091B50187FF0DC0109287
:1010E000B50141110BC01092B00108C08E3E81F4D1
:1010F0008091B50118169CF3442381F08091B601CC
:101100009091B701892B09F05AC01092AF01089550
:101110008F3E49F447FFF0CF1092B4018091B501A2
:101120008111ECCFE0CF803F19F41416ACF3E4CF7B
:101130009091B601893F29F41916F4F61092B60180
:10114000DBCF8A3F19F497FFD7CFF8CF9091B70143
:101150008B3F29F497FFD0CF1092B701CDCF8C3FB2
:1011600019F41916CCF3C8CF9FE0980F983090F47B
:10117000815F990B21E030E0B90102C0660F771F53
:101180008A95E2F7CB0180959091B30189238093F2
:10119000B301B2CF8D3F31F48091B1018E7F809346
:1011A000B101AACF8E3F21F48091B1018D7FF7CF9D
:1011B0008F3F09F0A1CF8091B1018B7FF0CF0895CF
:1011C0000E944F1C2091B4013091B501232B21F0D6
:1011D0008093AD019093AE012091B6013091B7019B
:1011E000232B21F08093AB019093AC0182EB91E033
:1011F0000C94480FCF92DF92EF92FF920F931F93C0
:10120000CF93DF9300D000D000D0CDB7DEB726E07B
:10121000E2EBF1E0CE010196DC0101900D922A95FE
:10122000E1F7C090B401D090B501E090B601F09024
:10123000B7011092B4011092B5011092B60110924C
:10124000B7012C2D2D298C0191F08091AD01909149
:10125000AE010E947B1C9C018091B001882309F49F
:1012600040C0909121019217130608F448C08E2DBA
:101270008F2991F08091AB019091AC010E947B1C71
:101280009C018091AF01882309F478C090911D01E1
:101290009217130608F480C08091B4019091B501B3
:1012A000892B9091B601892B9091B701892B11F070
:1012B0000E94E00886E0F801A2EBB1E001900D92F7
:1012C0008A95E1F726960FB6F894DEBF0FBECDBF24
:1012D000DF91CF911F910F91FF90EF90DF90CF9012
:1012E0000895409122019AE0499FA00111244217DC
:1012F000530708F0BCCF8F5F8093B00102C08F3FCF
:10130000D1F7CC2059F00E949B079FEF1C140CF4DE
:1013100091E0899F802D11248093B401DD2059F044
:101320000E949B079FEF1D140CF491E0899F802D74
:1013300011248093B5013091B401332309F497CF80
:101340002091B501222309F492CF45EB3403C0016B
:101350001124992359F09093B40145EB2403900193
:101360001124332339F03093B50181CF81E080938C
:10137000B401F3CF81E08093B50179CF40911E0194
:101380009AE0499FA00111244217530708F084CF27
:101390008F5F8093AF0102C08F3FD1F7EE2059F0ED
:1013A0000E94E5079FEF1E140CF491E0899F802DA9
:1013B00011248093B601FF2059F00E94E5079FEFAA
:1013C0001F140CF491E0899F802D11248093B701A4
:1013D0003091B6012091B701332309F45DCF222368
:1013E00009F45ACF45EB3403C0011124992359F075
:1013F0009093B60145EB240390011124332339F077
:101400003093B70149CF81E08093B601F3CF81E0FB
:101410008093B70141CF86E0E2EBF1E0DF011D925E
:101420008A95E9F71092B0011092AF011092B101C4
:1014300008950F931F93CF93DF93C42FD22FFC01F6
:1014400082818823C9F04093BA010E944F1C909377
:10145000B9018093B80180E28C0F883008F050C049
:10146000C77081E001C0880FCA95EAF7DF91CF917C
:101470001F910F910C9422111091BA01141335C0D1
:101480008091B8019091B9010E947B1C883C910524
:1014900060F5C0E2CD0F1D17B9F080E2810F8830F2
:1014A00040F4177081E001C0880F1A95EAF70E9496
:1014B0002911C83048F481E09D2F977001C0880F32
:1014C0009A95EAF70E942211802F0E941A11C830C3
:1014D000B8F4D77081E001C0880FDA95EAF7DF91A0
:1014E000CF911F910F910C94291180E28C0F8830BD
:1014F00038F4C77081E001C0880FCA95EAF7EFCFD2
:10150000DF91CF911F910F9108950F939C01CB0113
:10151000243F4CE53407A1F190F4293DFCE53F0759
:1015200049F12A3D4CE53407E9F1283D3C45C1F03D
:10153000FC0182818823E1F11092BA0119C0263F93
:10154000FCE53F0719F1273F4CE5340729F1253F1A
:101550003C4571F707E225EE44EE65EF7CE505C0FA
:1015600006E221EE41EE68ED7CE50E94190A80E07A
:101570000F91089507E225EE45EE69ED7CE5F5CF84
:1015800006E221EE40EE64EF7CE5EFCF06E221EECD
:1015900042EE66EF7CE5E9CF07E225EE46EE67EF27
:1015A0007CE5E3CF08E221E045EE6AED7CE5DDCFA6
:1015B00081E0DECFCF93DF93EC01FB0182818823B2
:1015C00009F4CEC0C631FCE5DF07E0F4C2309CE58B
:1015D000D907F0F00E94741A9093890280938802D0
:1015E000C631ECE5DE0720F5C230FCE5DF0798F4F4
:1015F00080918802909189020E94821A0E94D513DC
:1016000080E006C09E012B5F3C452930310510F378
:10161000DF91CF910895FE01E350FC45809188024F
:101620008160E331F105B0F4E858FB4D0C940724D8
:10163000CE018B5F9C450997D8F6FE01EC5FFC4517
:10164000E830F10590F4E557FB4D0C9407248091A8
:101650008802826080938802CBCF80918802846068
:10166000F9CF809188028860F5CF809189028160EE
:1016700080938902BDCF809189028260F9CF8091E9
:1016800088028061E7CF809188028062E3CF8091F9
:1016900088028064DFCF0E94D51380918802806821
:1016A000D9CF809188028C60D5CF809189028360E8
:1016B000DFCF809188028E7FCDCF809188028D7F91
:1016C000C9CF809188028B7FC5CF80918802877FA8
:1016D000C1CF809189028E7FCBCF809189028D7F8F
:1016E000C7CF809188028F7EB5CF809188028F7D91
:1016F000B1CF809188028F7BADCF0E94D5138091AE
:1017000088028F77A7CF80918802837FA3CF8091B3
:1017100089028C7FADCF8091880282FB992790F956
:1017200021E0922790FB82F990FB83F993CF80917F
:101730008902982F909591708E7F892B90FB81F96B
:1017400097CF0E94D51390918802892F97FB87F934
:10175000805880CF81E00E94081B4ACF80E0FBCFF9
:1017600081E056CFCF93DF93EB0186319C4511F595
:101770000E94A4199A81992399F08A7A91E009F438
:1017800090E09093BB01811109C089E20E945E192B
:101790000E94EC1980E0DF91CF91089585E3F6CFA8
:1017A0008091BB01811104C089E20E946519F0CFCC
:1017B00085E3FBCF81E0EFCFCF93DF93EC0181E0B6
:1017C000898B8F810E94A71988850E94BB190E946E
:1017D000EC19EA81FB81309739F06C897D89CE0163
:1017E0000696DF91CF910994DF91CF910895CF9321
:1017F000DF93EC01FB018881823031F48281938197
:101800000E949D0281E08B87DF91CF910895FB01BB
:10181000DC018C91813021F4808191810C949D02B6
:10182000823019F482819381F9CF0895FB01DC01A4
:101830008C91813021F4808191810C94B2028230AC
:1018400019F482819381F9CF0895EF92FF920F935B
:101850001F93CF93DF93EC018A85811134C0EB8015
:10186000FC8087E5F81A26E12E9DC0012F9D900D82
:101870001124DC01A050BF4F1496ED91FC911597F7
:10188000309731F054966D917C918A5F9E4F099507
:1018900086E18E9D80018F9D100D112400501F4FF9
:1018A000F80187810E94AD19F80180850E94C11955
:1018B0000E94EC19188219861B861E821D821092C6
:1018C000BD011092BC01DF91CF911F910F91FF904C
:1018D000EF900895DF92EF92FF920F931F93CF93B3
:1018E000DF938C01FB018281882391F08091230199
:1018F0008F3F71F0C0E0D1E0F12CE12CDD24D394D6
:1019000080912301082E000C990B8E159F0544F43D
:10191000DF91CF911F910F91FF90EF90DF9008958D
:101920008E818823D9F089859A858017910739F4AB
:101930008091BC019091BD018017910779F0DF86FD
:101940001C870B878989811103C0CE010E94DC0BA3
:10195000CE0106960E94250C0E94C919FFEFEF1ACE
:10196000FF0A6696CDCFEF92FF920F931F93CF930E
:10197000DF938C01FB0197558F3F910509F0D0F55E
:1019800020912301022E000C330B2817390714F481
:1019900080932301228136E1389F7001399FF00C3A
:1019A0001124E701C050DF4F288B92818E8199234B
:1019B00049F11A8709878F5F8E830E944F1C9E878B
:1019C0008D870E94CF198F830E94A41988870E9457
:1019D000B8199885982B9887E881F981309731F06C
:1019E0006C897D89C7018A5F9E4F09951093BD015F
:1019F0000093BC0181E0DF91CF911F910F91FF9087
:101A0000EF9008958823B1F38989882399F3C7015A
:101A10008A5F9E4F0E94250CEDCFEF92FF920F93AD
:101A20001F93CF93DF93809123018F3F09F042C032
:101A3000DF91CF911F910F91FF90EF900895E29E5B
:101A4000F001E39EF00D1124E050FF4F028913894D
:101A50000115110511F408EC10E0E29EE001E39E8F
:101A6000D00D1124C050DF4F8E818823B9F08D85B1
:101A70009E850E947B1C0817190780F4FE9C80013C
:101A800011248989811105C0C80180509F4F0E948F
:101A9000DC0BC8018A5F9E4F0E94250CF3942F2D0A
:101AA00030E080912301082E000C990B82179307D8
:101AB00034F6BECFF12C86E1E82EF1CF61E070E084
:101AC00084E291E00C942E0E61E070E084E291E0FB
:101AD0000C94350ECF93DF9300D000D00F92CDB78A
:101AE000DEB76D8379830E94CF0E9C0180E02115C3
:101AF0003105E1F4ED81F981D901AD53BE4F8C91EF
:101B000081932F5F3F4F24303105B1F70E94E01CD5
:101B1000DC01CB010296A11DB11D8093BF01909302
:101B2000C001A093C101B093C20181E00F900F905A
:101B30000F900F900F90DF91CF910895CF93DF9387
:101B400000D000D000D0CDB7DEB76E837D8380910A
:101B5000BF019091C001A091C101B091C2018983E0
:101B60009A83AB83BC83BC01CD010E94B71CEE817C
:101B7000FD8190E080E02191DC01AD53BE4F2C93BC
:101B8000019684309105B9F726960FB6F894DEBF1A
:101B90000FBECDBFDF91CF9108958EE14A9B02C069
:101BA0008150E1F74A9BFECF08955A9880E28A95CA
:101BB000F1F75A9A0895FC013BE03A95F1F798E065
:101BC00020E080E031E040E14A95F1F7880F4A9B40
:101BD00002C08160232742E04A95F1F7000040E10E
:101BE0004A95F1F7915079F790E19A95F1F799B10B
:101BF00032E03A95F1F7000040E14A95F1F792FBA7
:101C0000992790F992272081920F90830895EF925F
:101C1000FF920F931F93CF93DF930F92CDB7DEB751
:101C200019828C017C01E60EF11C0E151F0561F472
:101C300081E09981911180E00F90DF91CF911F9108
:101C40000F91FF90EF9008950E94CD0DCE01019667
:101C50000E94DB0DF80181938F01E7CF9093C801BB
:101C60008093C701529A5A9A08959093C80180931D
:101C7000C70152985A9AEA9AE9E6F0E080818F7C8F
:101C8000808308956150770B91E001C0990F6A95A8
:101C9000EAF720E031E0911108C0222391F05A9A2E
:101CA00080E28A95F1F75A980895492F482339F030
:101CB0005A9A232740E24A95F1F79695ECCF5A9825
:101CC000F9CF5A98EDCFFF920F931F93CF93DF93E5
:101CD000EC018C01060F111DC017D10731F4DF9103
:101CE000CF911F910F91FF900895F9900E94D50D0B
:101CF00068E08F2D0E94420EEFCF1F920F920FB619
:101D00000F9211242F933F934F935F936F937F9381
:101D10008F939F93AF93BF93CF93DF93EF93FF93F3
:101D20005A98529AC091C701D091C8016D8166231B
:101D300021F08E819F810E94630E0E94D50D80E16B
:101D40008A95F1F75A9852985A9A80E18A95F1F754
:101D50006A81662309F18B819C810E94070EE881CC
:101D6000F981882311F088E001C082E080830E941D
:101D7000CD0DFF91EF91DF91CF91BF91AF919F91E9
:101D80008F917F916F915F914F913F912F910F9024
:101D90000FBE0F901F901895E881F981E4CFCF9383
:101DA000DF93C091C701D091C801F894529A5A9814
:101DB00085E08A95F1F7000052985A9A80E28A9558
:101DC000F1F74A9B0CC0529A5A9AE881F98181E056
:101DD0008083789481E090E0DF91CF9108956D81C8
:101DE000662381F08E819F810E94070E81110AC0B7
:101DF000529A5A9AE881F98182E08083789482E04D
:101E000090E0EACF0E94CD0D80E28A95F1F75A98D2
:101E1000529A80E18A95F1F76A81662321F08B81DD
:101E20009C810E94630E0E94D50DE881F981108289
:101E3000789490E080E0D0CF9093CE018093CD0154
:101E40000895E091CD01F091CE01309721F00190FD
:101E5000F081E02D099480E00895DC01E091CD014E
:101E6000F091CE01309799F080913801882351F09C
:101E70008091880287FF06C08C9111968C931197F0
:101E800085E08C930280F381E02DCD0109940895C3
:101E9000DC01E091CD01F091CE01309739F082E084
:101EA0008C930480F581E02DCD0109940895209153
:101EB000CB013091CC012817390771F09093CC01F8
:101EC0008093CB01E091CD01F091CE01309721F0CC
:101ED0000680F781E02D099408952091C901309181
:101EE000CA012817390771F09093CA018093C9017C
:101EF000E091CD01F091CE01309721F00084F18581
:101F0000E02D099408950E945B1C6093DC0170939E
:101F1000DD018093DE019093DF016093D80170931F
:101F2000D9018093DA019093DB01089585B7806829
:101F300085BF85B7806885BF0895089508950C947E
:101F40009D0F08950C94A10F0E94960F89E59AE1C8
:101F50000E94221D0E949E0F0C949F0F0C947007EC
:101F6000089508950E94B00F0C94B10F0E94461C72
:101F70000E94AE1C0E9406060C94A20FAF92BF9264
:101F8000CF92DF92EF92FF920F931F93CF93DF9345
:101F900000D000D00F92CDB7DEB70E94B8068111F5
:101FA0000E94830F80EDA82E81E0B82E10E000E0A3
:101FB000C02E802F0E94DB05F82EF501E1905F0115
:101FC000E81609F44CC08091640281FD0E94E1058D
:101FD0008E2D8F25D12CEE24E394982F9E21D1F1C4
:101FE0000E94AE0F882399F0D982CA82FE2081E038
:101FF00009F480E08B830E944F1C8160782F9D83C1
:102000008C8349815A816B81892F0E945610F80177
:10201000E053FE4F80818E2580830E94FA080E9443
:10202000210F9091CF01891789F10E94210F809390
:10203000CF010F900F900F900F900F90DF91CF91E5
:102040001F910F91FF90EF90DF90CF90BF90AF90D6
:102050000C949403D394EE0CF6E0DF12BECF0F5F26
:102060001F4F0830110509F0A3CF8FEF89838A83B2
:102070001B820E944F1C8160782F9D838C83498135
:102080005A816B81892F0E945610C7CF0F900F90F5
:102090000F900F900F90DF91CF911F910F91FF90B4
:1020A000EF90DF90CF90BF90AF900895CF93DF93E4
:1020B000CDB7DEB72B970FB6F894DEBF0FBECDBFFE
:1020C0004F83588769877A878B8761110E94C91966
:1020D0001E8285E0FE013796DE01119601900D9279
:1020E0008A95E1F749815A816B817C818D819E813E
:1020F0002B960FB6F894DEBF0FBECDBFDF91CF9108
:102100000C942116FC01808191810C942819CF93A5
:10211000C82F882309F446C08CEF8C0F813AA0F4B5
:102120006C2F80912C0190912D010E94211B8823FE
:1021300029F08C2F0E9465190E94EC198C2F0E94A7
:102140005E19CF910C94EC1980E28C0F883048F422
:10215000C77081E001C0880FCA95EAF70E94A719ED
:10216000F0CF8BE58C0F833038F42C2F2452330BB7
:10217000C901CF910C94570FE8E5EC0FE73150F40B
:10218000F0E0EE0FFF1FEB58FE4F80819181CF9161
:102190000C946D0FCD3E30F08C2F0E941E08CF9115
:1021A0000C94E008CF910895882361F19CEF980F7B
:1021B000913A20F40E9465190C94EC1990E2980F62
:1021C000983050F4877091E001C0990F8A95EAF732
:1021D000892F0E94AD19F0CF9BE5980F933020F422
:1021E00090E080E00C94570F98E5980F973120F419
:1021F00090E080E00C946D0F8D3E20F00E94670807
:102200000C94E00808951F93CF93DF93182FEB01F0
:102210000E948710209731F4812FDF91CF911F9179
:102220000C94D4108FE99FE00197F1F700C00000F3
:102230002197F0CF70E060E0893311F460E570E041
:102240000C940311882321F00E94A7190C94EC1917
:102250000895882321F00E94AD190C94EC1908957B
:10226000AF92BF92CF92DF92EF92FF920F931F93A4
:10227000CF93DF9300D000D00F92CDB7DEB76C01C3
:102280006D837983FC011281058102950F700E9494
:102290007C19E82E8823A1F0E12E112389F0898191
:1022A000807F803429F08D81805EE12C883040F081
:1022B00082E00E943D1A0E947C1991E0E82EE926F6
:1022C000898182958F70A82EB12C8C30A8F5F501EC
:1022D000ED56FB4D0C94072409810F70F981F07FB6
:1022E00011F00295007F1123B1F0002361F08D8180
:1022F000805E883018F01D81111109C0802F0E9466
:10230000A7190E94EC198D810E94871015C0802F9B
:102310000E94BB19F6CF8D810E94D410002361F07A
:102320008D81805E883018F01D81111133C0802F9F
:102330000E94AD190E94EC1998E0A91AB108E4E0D6
:10234000AE16B10420F40E94210F0E949403EE20E7
:1023500009F4B8C10E94781980FDB4C1F601128257
:102360000E9472190E947F17C6010E9489130E9461
:1023700072190F900F900F900F900F90DF91CF91E7
:102380001F910F91FF90EF90DF90CF90BF90AF9093
:102390000C94B017802F0E94C119CCCF29812F70C7
:1023A000F22E3981307F303219F0F29480EFF8222A
:1023B0008D81882339F0813019F1112361F10023D7
:1023C00021F1A1CF112381F0011106C00E94CF1984
:1023D0008F290E942211B0CF0130C1F70E94CF197E
:1023E0008F290E94D519A8CF011106C00E94E219B9
:1023F0008F2D0E942911A0CF013009F49DCFF6CF77
:10240000112329F0063008F097CF8F2DE2CF053049
:1024100008F092CFEDCF002359F30D81093349F431
:102420001FEF27EE33E0115020403040E1F700C0AD
:1024300000008D810E94D4107FCF8981869586957A
:10244000837069F0813009F077CF8D819981937025
:10245000111102C090E080E00E946D0F6DCF8D8160
:1024600099819370111102C090E080E00E94570F93
:1024700063CF8D81112329F00E941E080E94E0087D
:102480005BCF0E946708FACF8981837009F050C042
:10249000111152CF2D81229526952770220F220FE0
:1024A0004D814F7050E070E060E0022E04C0440F98
:1024B000551F661F771F0A94D2F70D8180E090E0C8
:1024C000DC0104FF0FC08FE090E0A0E0B0E004C0AA
:1024D000880F991FAA1FBB1F2A95D2F78095909548
:1024E000A095B09519811695169513701D838C01D2
:1024F0009D01042B152B262B372B09831A832B8345
:102500003C831D8169817A818B819C81123051F0DD
:10251000133059F0113019F00E94F5160DCF0E94BA
:10252000CD160ACF0E941D1707CF0E94CB1604CFED
:10253000112309F448C0098100FFFECE2D812295A8
:1025400026952770220F220F4D814F7050E070E0CA
:1025500060E0022E04C0440F551F661F771F0A94C7
:10256000D2F70D8180E090E0DC0104FF0FC08FE026
:1025700090E0A0E0B0E004C0880F991FAA1FBB1F25
:102580002A95D2F780959095A095B09519811695CA
:10259000169513701D838C019D01042B152B262B82
:1025A000372B09831A832B833C831D8169817A81B0
:1025B0008B819C81123071F0133079F0113039F039
:1025C0000E943E18B9CE198111FFB6CEB7CF0E9436
:1025D0001618B2CE0E946618AFCE0E944917ACCE34
:1025E00009810F700983112329F0802F0E947F1722
:1025F0008D81EFCE8D810E94291189810E94B017B3
:102600009BCE2D81223FA1F160F4203FE1F0213FDC
:1026100041F1112309F445C0011175CE89818F71F3
:1026200024C03D81333F49F1343F99F7112379F1BB
:1026300009810F710983802F0E947F1763E08981D0
:102640000E94221A79CE112341F0053008F074CE91
:1026500089818F710E94E5176FCE063008F06CCE2D
:10266000F7CF89818F71112349F20E947F1764CEC1
:1026700089818F711123C9F3C1CF112329F0898179
:102680008F710E945A1758CE0E94551755CE81E07F
:102690000E943D1A023008F44FCE82E00E943D1A9B
:1026A0004BCE002361F01D81193309F0C2CE2FEF0C
:1026B00037EE83E0215030408040E1F7B8CE898189
:1026C0008F719CCF0F900F900F900F900F90DF9114
:1026D000CF911F910F91FF90EF90DF90CF90BF901F
:1026E000AF9008950F931F93CF93DF93EC01688110
:1026F00079818A810E9434198C010E948E180E946F
:10270000CA16B801CE01DF91CF911F910F910C94A1
:102710003011CF93DF93EC01988189812B813C812B
:10272000232B19F089238F3F59F4DF91CF9108951E
:10273000CE010E947213CE01DF91CF910C940C0355
:10274000CE010E9431038111F3CF0E947C198823AE
:1027500061F38A81882349F382E0DF91CF910C9461
:102760003D1A882321F00E94BB190C94EC1908959E
:10277000882321F00E94C1190C94EC19089590E06F
:1027800080E00E94570F90E080E00E946D0F0E9451
:10279000C9190E94CC190E94EC190E940B0A0C94D2
:1027A000E0080E946C190C94BF130E94B5190C9498
:1027B000D113282F892F82958F70903C80F48A3016
:1027C000B0F4843020F4823090F480E008958630B4
:1027D000E1F781E0283E88F0213FB9F70EC08C3048
:1027E00011F08F3091F793FB882780F9089581E0ED
:1027F000203F39F018F4283E40F70895243F29F788
:10280000FCCF08950E9428190C94D913CF93DF931D
:1028100000D000D00F92CDB7DEB70F900F900F9081
:102820000F900F90DF91CF910895CF93DF9300D059
:1028300000D000D0CDB7DEB726960FB6F894DEBF35
:102840000FBECDBFDF91CF9108951F93CF93DF933C
:10285000E091E10116E08091E2018E1304C0DF9166
:10286000CF911F910895CE2FD0E01E9FF00111242B
:10287000ED51FE4F40815181628173818481958148
:102880000E9415142196EC2FE770E5CF40911302BA
:1028900050911402609115027091160280911702F6
:1028A000909118020C9415141F93CF93DF9380918D
:1028B0001802807FA9F480911502882389F0809105
:1028C000E101C091E2017091130260911402A091A4
:1028D0001602B0911702D62FD72316E0C81304C0F2
:1028E000DF91CF911F91089590E0109711F0DF3F95
:1028F00019F401968770F2CF189F9001199F300D3F
:102900001124F901ED51FE4F41816413F2CF408152
:102910004713EFCF42814111ECCF438154814A1BD1
:102920005B0B483C510528F7809118028F7080613D
:1029300080931802F901E851FE4F80818F70806109
:10294000808383E192E00E948913DF91CF911F91F0
:102950000C942514AF92BF92CF92DF92EF92FF9228
:102960000F931F93CF93DF93CDB7DEB72B970FB69F
:10297000F894DEBF0FBECDBF8C0185E0F801DE010B
:10298000179601900D928A95E1F7F801E280308167
:102990002181C380D48083E1A82E82E0B82E90915B
:1029A0001302409114026091160270911702611592
:1029B000710529F0892F84238F3F09F02FC1EE2064
:1029C00009F43BC18F8198850E940214F82E882358
:1029D00009F433C186E0F801A3E1B2E001900D9261
:1029E0008A95E1F783E192E00E9482100E945414DC
:1029F000F4C080911802582F507F683C710508F090
:102A0000A5C05111D7C0FE2C241324C0931322C09B
:102A1000E11020C08F708061809318020E944614DC
:102A200083E192E00E94891380911802F801858366
:102A30008F2D2B960FB6F894DEBF0FBECDBFDF9162
:102A4000CF911F910F91FF90EF90DF90CF90BF90AB
:102A5000AF900895CD2829F0822F83238F3F09F06E
:102A6000A6C080E0F82FF170DF2EE091E1014091E7
:102A7000E20156E080FD1CC0EE20D1F280911802E8
:102A8000816080931802F12CD3CF8E2F90E05E9F4F
:102A9000F0011124ED51FE4F6181261306C06081C3
:102AA000361303C062816E11E7CF0196E82FE770FD
:102AB000E413EBCF8F8198850E942819292F229546
:102AC0002F70903260F0225F2F70223078F49F7068
:102AD00051F0F8019581907F31F4D12C0AC09F709C
:102AE00011F08823D1F3805E8830B8F3C8010E94CA
:102AF0008913FD2C9DCF8F8198850E940214882315
:102B000009F49BC0EE2009F498C08091180280322D
:102B100070F020911302309114023A8329831B82B2
:102B2000DD82CC828E83CE0101960E94891386E0DD
:102B3000F801A3E1B2E001900D928A95E1F70E94BD
:102B400054140E944614FF24F39472CF511148C0CC
:102B50004F81588569857A858B850E94061483E1AB
:102B600092E00E94891386E0F50111928A95E9F7B7
:102B70000E94461488CF8F8198850E94021481118B
:102B8000D6CF80911802816080931802C8010E94FC
:102B900089134ECF4F81588569857A858B850E9430
:102BA000061486E0F50111928A95E9F716C081E0D6
:102BB0008E2558CF24139FCF93139DCFE1109BCF29
:102BC000F8018583C8010E94891386E0F801A3E11A
:102BD000B2E001900D928A95E1F70E94461428CF49
:102BE000241389CF931387CFE11085CFF801858314
:102BF000C8010E94891386E0F50111928A95E9F7D0
:102C000017CF2413B8CF9313B6CF86E0F801A3E112
:102C1000B2E001900D928A95E1F70ACFF09015028B
:102C2000F601E61BF70BBF01F110E3CE683C71051E
:102C300008F0B0CFFE2CE110E4CFC8010E94891348
:102C400082CF1F93CF93DF93CDB7DEB72C970FB60C
:102C5000F894DEBF0FBECDBF4F83588769877A8750
:102C60008B879C87CE0107960E94AA14882369F05F
:102C70008A859B85892B39F058854F81852F842340
:102C80008F3F09F071C016E05FC086E0FE01379605
:102C9000DE01119601900D928A95E1F78F8198855A
:102CA0002091E2014091E1016A857B85672B59F310
:102CB00089238F3F41F330E0C9010196877099273E
:102CC0004817190671F40E94D5131092E201109270
:102CD000E10186E0E3E1F2E0DF011D928A95E9F788
:102CE000D2CF96E0929FD001939FB00D1124AD51A9
:102CF000BE4FFE01319601900D929A95E1F78093B7
:102D0000E2010E942514BFCF819FC00111248D5183
:102D10009E4F0E94AA148823E9F0E091E1011E9FD2
:102D2000F0011124ED51FE4F408151816281738188
:102D3000848195810E9415148091E10190E00196B3
:102D4000877099278093E1018091E1019091E201E0
:102D50008913DACF2C960FB6F894DEBF0FBECDBF25
:102D6000DF91CF911F91089569857A858B859C8528
:102D70000E94151488CF08950C94BB160E94BC16AF
:102D800060933B0270933C0280933D0290933E021D
:102D90000C94BF1308950C94BE16CF93DF9300D00C
:102DA00000D0CDB7DEB769837A838B839C83809113
:102DB0003B0290913C02A0913D02B0913E022981DC
:102DC0003A814B815C81282B392B4A2B5B2B298341
:102DD0003A834B835C83CA01B9010F900F900F9027
:102DE0000F90DF91CF910C94BE16CF93DF9300D05C
:102DF00000D0CDB7DEB769837A838B839C838091C3
:102E00003B0290913C02A0913D02B0913E0229818B
:102E10003A814B815C81282339234A235B23298310
:102E20003A834B835C83CA01B9010F900F900F90D6
:102E30000F90DF91CF910C94BE16CF93DF9300D00B
:102E400000D0CDB7DEB769837A838B839C83809172
:102E50003B0290913C02A0913D02B0913E0229813B
:102E60003A814B815C81282739274A275B272983B0
:102E70003A834B835C83CA01B9010F900F900F9086
:102E80000F90DF91CF910C94BE160C94BB160C944E
:102E900045170E944717609337027093380280935A
:102EA000390290933A020C94BF1360E070E0CB01BA
:102EB0000C9449170F931F93CF93DF9300D000D04A
:102EC000CDB7DEB741E050E060E070E08A019B01E1
:102ED00004C0000F111F221F331F8A95D2F70983E8
:102EE0001A832B833C83C901B8010F900F900F9078
:102EF0000F90DF91CF911F910F910C9449170F9371
:102F00001F93CF93DF9300D000D0CDB7DEB741E061
:102F100050E060E070E004C0440F551F661F771F4B
:102F20008A95D2F78091370290913802A0913902A8
:102F3000B0913A028A019B01082B192B2A2B3B2BBB
:102F400009831A832B833C83C901B8010F900F902A
:102F50000F900F90DF91CF911F910F910C94491713
:102F60000F931F93CF93DF9300D000D0CDB7DEB780
:102F700041E050E060E070E004C0440F551F661F60
:102F8000771F8A95D2F740955095609570958091FE
:102F9000370290913802A0913902B0913A028A0129
:102FA0009B01082319232A233B2309831A832B839C
:102FB0003C83C901B8010F900F900F900F90DF91E3
:102FC000CF911F910F910C9449170F931F93CF939B
:102FD000DF9300D000D0CDB7DEB741E050E060E035
:102FE00070E004C0440F551F661F771F8A95D2F703
:102FF0008091370290913802A0913902B0913A0243
:103000008A019B01082719272A273B2709831A834E
:103010002B833C83C901B8010F900F900F900F9044
:10302000DF91CF911F910F910C944917CF93DF93AC
:1030300000D000D0CDB7DEB769837A838B839C83C1
:103040008091370290913802A0913902B0913A02F2
:1030500029813A814B815C81282B392B4A2B5B2BB0
:1030600029833A834B835C83CA01B9010F900F9087
:103070000F900F90DF91CF910C944917CF93DF936E
:1030800000D000D0CDB7DEB769837A838B839C8371
:103090008091370290913802A0913902B0913A02A2
:1030A00029813A814B815C81282339234A235B2380
:1030B00029833A834B835C83CA01B9010F900F9037
:1030C0000F900F90DF91CF910C944917CF93DF931E
:1030D00000D000D0CDB7DEB769837A838B839C8321
:1030E0008091370290913802A0913902B0913A0252
:1030F00029813A814B815C81282739274A275B2720
:1031000029833A834B835C83CA01B9010F900F90E6
:103110000F900F90DF91CF910C9449170895E92FEC
:10312000EE0FE90FEE0FE80F8E2F877041E001C020
:10313000440F8A95EAF7E695E695E69585E0E89FDF
:10314000F0011124E75EFD4F30E020E070E0519186
:10315000DF011197CB01022E02C0969587950A9444
:10316000E2F7817081958527842385278C932F5FD3
:103170003F4F2530310559F70895E92FEE0FE90F3C
:10318000EE0FE80F9E2F9770E695E695E69585E0A1
:10319000E89FF0011124E75EFD4F50E040E080E041
:1031A000219130E0092E02C0369527950A94E2F766
:1031B00021703327042E01C0220F0A94EAF7822BD4
:1031C0004F5F5F4F4530510559F70895BF92CF9239
:1031D000DF92EF92FF920F931F93CF93DF938C01B7
:1031E000C0903702D0903802E0903902F0903A0255
:1031F00080913B0290913C02A0913D02B0913E0231
:10320000C82AD92AEA2AFB2ACFE1D0E0BC2ED7016E
:10321000C6010C2E04C0B695A795979587950A947C
:10322000D2F780FD0EC0219788F7B12C8B2DDF914E
:10323000CF911F910F91FF90EF90DF90CF90BF90B3
:103240000895B8018C2F0E94B003019761F3EECF6F
:10325000CF93DF93D82FC92F0E94E6186D2F7C2FB4
:10326000DF91CF910C94B0031F93CF93DF93162F70
:10327000D72F9091E001992339F0862F972FDF9176
:10328000CF911F910C942819882391F0862F972FA6
:103290000E94E618C82F682F812F9D2F0E948F183B
:1032A000612F7D2F8C2FDF91CF911F910C94B00354
:1032B000862F972F0E94BD18C82FF2CF682F8091BC
:1032C0002C0190912D010C94A51B682F80912C014D
:1032D00090912D010C94B01B80912C0190912D01A7
:1032E0000C94BB1B80913F0285958595859508952B
:1032F00080913F028770089590913F02977081E01E
:1033000009F480E008959091890292FB222720F928
:10331000281751F080FB92F99093890280918802DE
:10332000909189020C94821A08958091890282FBFF
:10333000882780F991E089270C94831981E00C9407
:10334000831980E00C948319809163020895909111
:103350006302982B909363020895982F9095809123
:103360006302892380936302089510926302089593
:1033700080916202089590916202982B909362026C
:103380000895982F9095809162028923809362021C
:10339000089510926202089510926102089580913A
:1033A0004002089508950C94D2199091890292FDDB
:1033B00008C090914002981721F0809340020C942D
:1033C000D319089580914002882329F01092400279
:1033D00080E00C94D3190895E0912C01F0912D0117
:1033E000809163028083E0912C01F0912D01808116
:1033F00090916202892B8083E0912C01F0912D0144
:10340000808190916102892B808390914002992361
:1034100081F0E0912C01F0912D018081892B808336
:1034200080912C0190912D010E940D1B81110E9411
:10343000E21980912C0190912D010C942D0F08958B
:103440000C941F1A9091890292FD10C098E0899FF8
:1034500090011124622B60933F020E947F1780919C
:103460003F028595859585950C94201A0C947F17BD
:1034700010923F0280E00C94201A90913F028095B8
:10348000892380933F02282F277039F4282F082E94
:10349000000C330B9217130621F49091890292FFCE
:1034A00007C08595859585950E94B0170C94381AAC
:1034B000089580E008956FEF7FEF90E080E00C9436
:1034C0004D2490E080E00E9429249C0181E02A3E66
:1034D0003E4F09F080E0089582E090E00C942124B2
:1034E00083E090E00C942124CF9384E090E00E944C
:1034F0002124C82F82E290E00E942124982F8C2F53
:10350000CF910895CF93682FC92F84E090E00E9457
:103510002F246C2F82E290E0CF910C942F24AB01EA
:10352000BC018FE090E00C944124AB01BC0183E12D
:1035300090E00C94412460E070E0CB010C94951A6B
:1035400060E070E0CB010E948F1A0C949B1A6AEE27
:103550007EEF90E080E00E944D2460E082E090E009
:103560000E942F2460E083E090E00E942F241092BC
:103570003B0210923C0210923D0210923E0260E02B
:1035800084E090E00E942F2460E082E290E00E94BC
:103590002F2460E085E090E00E942F2460E086E028
:1035A00090E00E942F246FEF87E090E00E942F248C
:1035B00040E050E0BA0188E090E00E94412460E0E1
:1035C0008DE090E00E942F2440E050E0BA0188E1B5
:1035D00090E00E94412460E087E190E00E942F2467
:1035E00040E050E0BA018CE190E00E94412470E09C
:1035F00060E080E290E00E944D2440E050E0BA019B
:1036000088E190E00E9441240C94A01A0C94A71A1F
:10361000682F8EE090E00C942F24FC01329680916C
:103620003801882321F0809188029EE187FF96E08F
:1036300080E0915008F4089521912223D1F38F5F07
:10364000F8CF9C01662301F1809138018823F1F0C5
:103650008091880287FF1AC0462F46954695469569
:10366000603F90F4677081E090E002C0880F991F7E
:103670006A95E2F7240F311DF901228130E02823F9
:10368000392381E0232B71F480E00895F90132960B
:10369000285F3F4F8191861721F0E217F307D1F79A
:1036A000F3CF81E008959C01FC0132968FEF90E00A
:1036B0004191461751F08F3F19F4411101C0892FF4
:1036C0009F5F9630A9F78F3F09F40895280F311DA9
:1036D00087FD3A95F901628308959C01FC013296B9
:1036E000285F3F4F8191861303C0DF0111971C9221
:1036F000E217F307B9F70895FC01862F86958695A2
:103700008695603F60F4E80FF11D677021E030E0BE
:1037100001C0220F6A95EAF78281822B8283089585
:10372000FC01862F869586958695603F68F4E80FA4
:10373000F11D677081E090E001C0880F6A95EAF79B
:1037400080959281892382830895209138012223D4
:1037500029F02091880227FD0C947C1B0C94531BAC
:1037600020913801222329F02091880227FD0C9412
:10377000901B0C946D1BFC013296809138018823BC
:1037800051F08091880287FF06C08EE1DF011D9213
:103790008A95E9F7089586E0F9CF089508950C9485
:1037A000CE1B8091A802843049F10E94CF1B80E09B
:1037B0000E9494031092650288E190E020E40FB625
:1037C000F894A895809360000FBE2093600083B7A3
:1037D000817F846083BF83B7816083BF789488953D
:1037E00083B78E7F83BF0FB6F894A8958091600051
:1037F000886180936000109260000FBE0895089564
:10380000CF930E94CD1B0E94B8060E94FF1BC0E010
:103810008C2F0E94DB05811105C0CF5FC830C1F736
:10382000CF91089581E0FCCF08950C94141C0E9460
:10383000D5130E94210F0E9494030C94151C1F9213
:103840001FB61F9211248F939F93AF93BF938091C4
:103850006502811113C080919C0290919D02A091FC
:103860009E02B0919F024196A11DB11D80939C02C2
:1038700090939D02A0939E02B0939F02BF91AF913F
:103880009F918F911F901FBE1F90189582E084BD5D
:1038900093E095BD9AEF97BD80936E0008952FB782
:1038A000F89480919C0290919D02A0919E02B0910B
:1038B0009F022FBF0895CF93DF9300D000D0CDB7E4
:1038C000DEB78FB7F89420919C0230919D02409111
:1038D0009E0250919F0229833A834B835C838FBF62
:1038E00069817A818B819C810F900F900F900F904E
:1038F000DF91CF9108959C014FB7F89480919C027D
:1039000090919D02A0919E02B0919F024FBF821B99
:10391000930B089578941F921FB61F9211248F93D2
:103920009F93AF93BF9380919C0290919D02A09131
:103930009E02B0919F020196A11DB11D80939C0231
:1039400090939D02A0939E02B0939F02BF91AF916E
:103950009F918F911F901FBE1F9018951092A002EB
:103960001092A1021092A2021092A3020895CF9287
:10397000DF92EF92FF92CF93DF9300D000D0CDB7CC
:10398000DEB76B017C010E94700781110EC00E949E
:103990005B1CC61AD70AE80AF90AC092A002D092A4
:1039A000A102E092A202F092A3020F900F900F905A
:1039B0000F90DF91CF91FF90EF90DF90CF9008951F
:1039C000CF93DF9300D000D0CDB7DEB70E94700751
:1039D000882341F00F900F900F900F90DF91CF91BF
:1039E0000C945B1C0E945B1C69837A838B839C8391
:1039F0008091A0029091A102A091A202B091A30295
:103A000029813A814B815C81280F391F4A1F5B1F36
:103A1000CA01B9010F900F900F900F90DF91CF91D5
:103A2000089587E797E7909301088093000888E15D
:103A30009AE00FB6F894A895809360000FBE90931B
:103A40006000FFCF9093A5018093A4010895809119
:103A500086020895CF93DF9300D00F92CDB7DEB7E3
:103A60009091A802943019F589836A837B8382E060
:103A70008093E9008FEF9091E800815095FD06C09A
:103A800095ED9A95F1F700008111F5CF8091E8004E
:103A900085FF0DC050E040E063E070E0CE0101968C
:103AA0000E94561F8091E8008E778093E8000F9067
:103AB0000F900F90DF91CF910895BC0184E00C949A
:103AC0002A1DBC0183E00C942A1D22E02093E9000A
:103AD0002FEF3091E800215035FD06C035ED3A95C5
:103AE000F1F700002111F5CF2091E80025FF0BC070
:103AF00050E040E066E070E00E94561F8091E800D0
:103B00008E778093E8000895CF93DF93D82FC92F45
:103B1000809138018823C1F18091880287FF34C0E9
:103B200060E282E08093E9008FEF9091E80081509D
:103B300095FD06C095ED9A95F1F700008111F5CF3E
:103B40008091E80085FF1DC08091380170E050E051
:103B500040E0811104C050E040E068E070E08D2F4B
:103B60009C2F0E94561F8091E8008E778093E8007A
:103B700080E2ED2FFC2FA6E6B2E001900D928A952F
:103B8000E1F7DF91CF91089568E081E0CBCF80919C
:103B9000A702811109C00E94DE200E943B21809172
:103BA000E20084608093E20008951092A7020895D5
:103BB00008950895089542E061EC81E00E945A2042
:103BC00042E261EC82E00C945A208091AA02893092
:103BD00089F148F4823009F49DC0833009F458C05B
:103BE000813041F008958A3009F484C08B3009F4A3
:103BF0006AC008958091A902813A09F048C0809175
:103C0000E800877F8093E8008091AD029091AE023A
:103C1000892B61F460E286E692E070E00E94A51FC5
:103C20008091E8008B778093E800089560E090E051
:103C300080E0F3CF8091A902813249F58091AD02F5
:103C40009091AE02029718F58091E800877F8093EB
:103C5000E8008091E80082FF16C09091F300809107
:103C6000F200029729F48091F1008B7F813021F4DA
:103C70008091F100809386028091E8008B77809399
:103C8000E8000C948E208091A8028111E2CF089563
:103C90008091A902813AD9F78091AD029091AE024C
:103CA000892BA9F78091E800877F8093E8008091B5
:103CB000E80080FFFCCF809138018093F100809173
:103CC000E8008E77DCCF8091A902813201F78091E4
:103CD000AD029091AE02892BD1F68091E800877FEA
:103CE0008093E8000E948E208091AB02809338017F
:103CF0000C94D5138091A902813249F68091E80095
:103D0000877F8093E8000E948E208091AC02809390
:103D1000870208958091A902813A09F0B8CF809175
:103D2000E800877F8093E8008091E80080FFFCCF67
:103D300080918702C2CF84B7877F84BF0FB6F89483
:103D4000A895809160008861809360001092600067
:103D50000FBE80E890E00FB6F894809361009093D6
:103D600061000FBE0E94A40F0E94DE200E943B2132
:103D70008091E20084608093E20078940E94C723DF
:103D80000E94B60F8EE291E00E941C0F8091A80263
:103D9000853099F00E94BE0F0E94B20FF7CF0E94AB
:103DA000D11B8091A602882341F00E94001C882329
:103DB00021F00E94401F0E94D5138091A8028530F7
:103DC00071F30E94171CE6CF0C94E61EFC01CB0198
:103DD000DA012F2F332723303105D1F070F4213051
:103DE000310509F43EC02230310569F48BE390E0DF
:103DF00020E133E02D933C93089521323105E9F021
:103E00002232310521F190E080E030E020E0F2CF75
:103E1000CF019927E13059F08230910559F0ECE05B
:103E2000F3E0892B81F7849190E09F01E3CFEAEFE3
:103E3000F2E0F9CFECEEF2E0F6CF892BB9F0613089
:103E4000710509F789E090E02BE333E0D3CF892BAC
:103E500091F061307105B9F686EB90E02DE533E025
:103E6000C9CF82E190E02BE433E0C4CF89E090E059
:103E700022E233E0BFCF80E490E023E134E0BACF28
:103E800080E189BD82E189BD09B400FEFDCF80914A
:103E9000D8008F7D8093D8008091E000826080936D
:103EA000E0008091E00081FDFCCF0895AF92BF92C9
:103EB000CF92DF92FF920F931F93CF93DF936C010A
:103EC000EB018A010E94AD20F82E811123C001155B
:103ED000110539F0F80180819181C81BD90BC80EFA
:103EE000D91EB12CA12C2097A9F08091E80085FD66
:103EF00022C08091E8008E778093E80001151105BB
:103F0000A1F0F801808191818A0D9B1D91838083AE
:103F100085E0F82E8F2DDF91CF911F910F91FF90AB
:103F2000DF90CF90BF90AF9008950E94AD2088237E
:103F3000D1F2F82EEFCFF60181916F018093F1005D
:103F40002197FFEFAF1ABF0ACECFFC01CB01209122
:103F5000AF023091B0022617370790F0009729F48E
:103F60002091E8002E772093E80040E0009751F47C
:103F7000411108C08091E80082FF31C080E00895BF
:103F8000C901F3CF2091A8022223A9F12530A9F17C
:103F90002091E80023FD2DC02091E80022FDEACF0A
:103FA0002091E80020FFE2CF3091F3002091F20051
:103FB000009719F02830310558F041E028303105DC
:103FC00009F040E02091E8002E772093E800CECF62
:103FD00041914093F10001972F5F3F4FE9CF8091CE
:103FE000A802882341F0853041F08091E80083FFEA
:103FF000C1CF81E0089582E0089583E00895FC0137
:10400000CB012091AF023091B0022617370790F014
:10401000009729F42091E8002E772093E80040E0F3
:10402000009751F4411108C08091E80082FF32C02E
:1040300080E00895C901F3CF2091A8022223B1F1B5
:104040002530B1F12091E80023FD2EC02091E80039
:1040500022FDEACF2091E80020FFE2CF3091F3006B
:104060002091F200009719F02830310558F041E016
:104070002830310509F040E02091E8002E772093A8
:10408000E800CECF44914093F100319601972F5F25
:104090003F4FE8CF8091A802882341F0853041F05E
:1040A0008091E80083FFC0CF81E0089582E0089509
:1040B00083E00895982F973028F08F708093E9005F
:1040C00081E008959093E900242F762F50E098170F
:1040D00031F07091EC002091ED005091F00021FD45
:1040E00002C09F5FE8CF3091EB003E7F3093EB0042
:1040F0003091ED003D7F3093ED003091EB00316069
:104100003093EB007093EC002093ED005093F0009F
:104110002091EE0027FDE5CF80E008958091A9026F
:1041200087FF13C08091E80082FF06C08091E800FD
:104130008B778093E80004C08091A8028111F2CFB0
:1041400008958091A8028823D9F38091E80080FF28
:10415000F8CF8091E8008E77ECCF2091E400309189
:10416000E50095E6A9012091EC00822F817020FFE7
:1041700006C08091E80080FF06C080E0089520918D
:10418000E80022FD1AC08091A802882389F08530BA
:1041900089F08091EB0085FD0FC02091E400309103
:1041A000E50042175307F9F29150E1F684E00895D3
:1041B00082E0089583E0089581E008950E944C21F3
:1041C0000E945421E0EEF0E0808181608083E8ED80
:1041D000F0E080818F77808319BCA7EDB0E08C91EF
:1041E0008E7F8C9380818F7E80831092A7020895AA
:1041F0000F931F93CF93DF930E944C210E94542171
:10420000C8EDD0E088818F77888388818068888333
:1042100088818F7D888319BC1092A8021092A40215
:104220001092A6021092A50200EE10E0F801808123
:104230008B7F808388818160888342E060E080E0BA
:104240000E945A20E1EEF0E080818E7F8083E2EED2
:10425000F0E0808181608083808188608083F801C4
:1042600080818E7F8083888180618883DF91CF9178
:104270001F910F910895E8EDF0E080818F7E80839B
:10428000E7EDF0E080818160808384E082BF81E09F
:104290008093A7020C94F820E8EDF0E080818E7FF7
:1042A00080831092E20008951092DA001092E100EB
:1042B00008951F920F920FB60F9211242F933F93E0
:1042C0004F935F936F937F938F939F93AF93BF931E
:1042D000EF93FF938091E10082FF0BC08091E20099
:1042E00082FF07C08091E1008B7F8093E1000E94F4
:1042F000C6238091DA0080FF19C08091D80080FF2A
:1043000015C08091DA008E7F8093DA008091D90009
:1043100080FF94C080E189BD82E189BD09B400FEBF
:10432000FDCF81E08093A8020E94C71D8091E1002B
:1043300080FF19C08091E20080FF15C08091E200EB
:104340008E7F8093E2008091E20080618093E200A2
:104350008091D80080628093D80019BC85E080935A
:10436000A8020E94D91D8091E10084FF29C080919C
:10437000E20084FF25C080E189BD82E189BD09B4E6
:1043800000FEFDCF8091D8008F7D8093D800809172
:10439000E1008F7E8093E1008091E2008F7E809328
:1043A000E2008091E20081608093E2008091A402AB
:1043B000882309F449C084E08093A8020E94DA1D92
:1043C0008091E10083FF29C08091E20083FF25C036
:1043D0008091E100877F8093E10082E08093A802D2
:1043E0001092A4028091E1008E7F8093E100809181
:1043F000E2008E7F8093E2008091E20080618093F2
:10440000E20042E060E080E00E945A208091F000EB
:1044100088608093F0000E94D81DFF91EF91BF91BA
:10442000AF919F918F917F916F915F914F913F914C
:104430002F910F900FBE0F901F90189519BC1092DE
:10444000A8020E94D51D72CF8091E30087FD02C0B3
:1044500081E0B2CF83E0B0CF1F920F920FB60F92E0
:104460001124FF920F931F932F933F934F935F93CA
:104470006F937F938F939F93AF93BF93CF93DF936C
:10448000EF93FF9309EE10E0F8018081C091EC00FA
:10449000C795CC27C7958F70FC2EF82A1082C0EFE5
:1044A000D0E08881877F888378940E947522F80104
:1044B0001082888188608883CF2DCF70C083FF9160
:1044C000EF91DF91CF91BF91AF919F918F917F91AC
:1044D0006F915F914F913F912F911F910F91FF909D
:1044E0000F900FBE0F901F9018951F93CF93DF93DF
:1044F000CDB7DEB7AA970FB6F894DEBF0FBECDBF1B
:1045000089EA92E0FC0101962091F100208322E0EB
:10451000813B9207B9F70E94E51D8091E80083FF77
:104520001DC18091A9029091AA029A3008F016C18B
:10453000E92FF0E0E156FB4D0C940724803899F008
:10454000823809F00BC18091AD028F70873008F07E
:1045500005C18093E9008091EB0085FB882780F9F5
:104560001092E90006C08091A5029091A6029111D7
:1045700082609091E800977F9093E8008093F1002B
:104580001092F1008091E8008E77E4C0882309F44E
:10459000D2C0823009F0E2C08091AB028111D5C057
:1045A0008091AD028F702FEF280F263008F0D6C013
:1045B0008093E9002091EB0020FFC7C0933031F4D5
:1045C0008091EB0080628093EB00BFC09091EB0084
:1045D00090619093EB0021E030E001C0220F8A95BA
:1045E000EAF72093EA001092EA008091EB008860DD
:1045F000EACF8111B3C01091AB021F778091E30025
:104600008078812B8093E3008091E800877F8093FE
:10461000E8000E948E208091E80080FFFCCF80910E
:10462000E30080688093E30082E0111183E08093CF
:10463000A80294C08058823008F090C08091AB02EC
:104640009091AC028C3D23E0920799F583E08A8338
:104650008AE289834FB7F894DE01139620E03EE0AA
:1046600051E2E32FF0E050935700849120FF03C004
:1046700082958F703F5F8F708A30C8F0895C90E0C0
:104680008D939D932F5F243161F74FBF8091E80098
:10469000877F8093E8006AE270E0CE0101960E9475
:1046A000A51F8091E8008B778093E80057C0805D5C
:1046B000E6CF6091AD027091AE02AE014F5F5F4FE9
:1046C0000E94E41EBC01892B09F448C08091E800D7
:1046D000877F8093E80089819A810E94FF1FE1CF44
:1046E0008038E1F58091E800877F8093E800809131
:1046F000A4028093F10046CF811130C09091AB02AB
:10470000923060F58091E800877F8093E800909375
:10471000A4020E948E208091A402882311F084E0DC
:1047200005C08091E30087FDFACF81E08093A80265
:104730000E94DB1D13C08091AB02813079F481E0CF
:10474000933009F080E08093A6021092E9008091F6
:10475000E800877F8093E8000E948E208091E80027
:1047600083FF0AC08091E800877F8093E8008091F2
:10477000EB0080628093EB00AA960FB6F894DEBF40
:104780000FBECDBFDF91CF911F9108950895CF93B4
:104790008091A802882399F08091E900C091EC00F3
:1047A000C795CC27C7958F70C82B1092E9008091D0
:1047B000E80083FD0E947522CF70C093E900CF917D
:1047C00008950E94DE201092A8020895E8EDF0E01E
:1047D0008081806180838AE18A95F1F700C08091B1
:1047E000D9008170089597FB072E16F4009407D026
:1047F00077FD09D00E940D2407FC05D03EF490956A
:1048000081959F4F0895709561957F4F0895EE0FA4
:10481000FF1F0590F491E02D0994AA1BBB1B51E1E9
:1048200007C0AA1FBB1FA617B70710F0A61BB70B20
:10483000881F991F5A95A9F780959095BC01CD01C5
:104840000895F999FECF92BD81BDF89A992780B558
:104850000895A8E1B0E042E050E00C945524262FE2
:10486000F999FECF92BD81BDF89A019700B4021666
:1048700039F01FBA20BD0FB6F894FA9AF99A0FBE14
:1048800008950396272F0E9430240E942F24252F5D
:104890000E943024242F0C9430240196272F0E944C
:1048A00030240C942F24DC01CB01FC01F999FECFBC
:1048B00006C0F2BDE1BDF89A319600B40D924150A8
:1048C0005040B8F70895F894FFCF27082D08300816
:1048D00036084B084B084B084B084B084B084B0855
:1048E0004B0839083E084208480859085F08630821
:1048F000270B2D0B310B3F0B430B470B4B0B510B76
:10490000590B5D0B610B650B710B750B790B7D0BF7
:10491000830BA10B8B0B3B0B690B6D0B550B870BA3
:10492000970BAA0BAE0B6C116C11CE11CE111D1290
:1049300039129C119C114412F012011301139E2292
:10494000C622AE23C622AE23F9221A23AE23702339
:024950007C23C6
:10495200F70B070C160C000000000000000000001E
:10496200000000001601E1003900012808641E144D
:104972000A321EFFBE0104BF0104C3014102271D0A
:10498200841D651D611D5D1D01E200E900EA00B59F
:1049920000B600B700CD008301CC008A01920194D9
:1049A200012102230224022502260227022A02B33F
:1049B20000B4006F007000F4F5F6F7313394669797
:1049C200C600000000E200E900EA00B500B600B748
:1049D20000CD008301CC008A0192019401210223BF
:1049E2000224022502260227022A02B300B4006F23
:0449F2000070000051
:00000001FF
